{
  "contractName": "FileActions",
  "abi": [
    {
      "inputs": [],
      "payable": false,
      "stateMutability": "nonpayable",
      "type": "constructor"
    },
    {
      "constant": true,
      "inputs": [],
      "name": "fileMappingCount",
      "outputs": [
        {
          "internalType": "uint256",
          "name": "",
          "type": "uint256"
        }
      ],
      "payable": false,
      "stateMutability": "view",
      "type": "function"
    },
    {
      "constant": true,
      "inputs": [
        {
          "internalType": "string",
          "name": "",
          "type": "string"
        },
        {
          "internalType": "uint256",
          "name": "",
          "type": "uint256"
        }
      ],
      "name": "fileMappings",
      "outputs": [
        {
          "internalType": "string",
          "name": "fileId",
          "type": "string"
        },
        {
          "internalType": "string",
          "name": "fileName",
          "type": "string"
        },
        {
          "internalType": "string",
          "name": "date",
          "type": "string"
        },
        {
          "internalType": "string",
          "name": "userId",
          "type": "string"
        },
        {
          "internalType": "string",
          "name": "userName",
          "type": "string"
        },
        {
          "internalType": "string",
          "name": "action",
          "type": "string"
        },
        {
          "internalType": "string",
          "name": "role",
          "type": "string"
        }
      ],
      "payable": false,
      "stateMutability": "view",
      "type": "function"
    },
    {
      "constant": true,
      "inputs": [
        {
          "internalType": "string",
          "name": "_fileId",
          "type": "string"
        }
      ],
      "name": "getAllFileActionsForFile",
      "outputs": [
        {
          "components": [
            {
              "internalType": "string",
              "name": "fileId",
              "type": "string"
            },
            {
              "internalType": "string",
              "name": "fileName",
              "type": "string"
            },
            {
              "internalType": "string",
              "name": "date",
              "type": "string"
            },
            {
              "internalType": "string",
              "name": "userId",
              "type": "string"
            },
            {
              "internalType": "string",
              "name": "userName",
              "type": "string"
            },
            {
              "internalType": "string",
              "name": "action",
              "type": "string"
            },
            {
              "internalType": "string",
              "name": "role",
              "type": "string"
            }
          ],
          "internalType": "struct FileActions.FileAction[]",
          "name": "",
          "type": "tuple[]"
        }
      ],
      "payable": false,
      "stateMutability": "view",
      "type": "function"
    },
    {
      "constant": false,
      "inputs": [
        {
          "internalType": "string",
          "name": "_fileId",
          "type": "string"
        },
        {
          "internalType": "string",
          "name": "_fileName",
          "type": "string"
        },
        {
          "internalType": "string",
          "name": "_date",
          "type": "string"
        },
        {
          "internalType": "string",
          "name": "_userId",
          "type": "string"
        },
        {
          "internalType": "string",
          "name": "_userName",
          "type": "string"
        },
        {
          "internalType": "string",
          "name": "_action",
          "type": "string"
        },
        {
          "internalType": "string",
          "name": "_role",
          "type": "string"
        }
      ],
      "name": "createFileAction",
      "outputs": [],
      "payable": false,
      "stateMutability": "nonpayable",
      "type": "function"
    }
  ],
  "bytecode": "0x608060405234801561001057600080fd5b506113cb806100206000396000f3fe608060405234801561001057600080fd5b506004361061004c5760003560e01c80633735b30414610051578063a6652ccf1461006d578063eef6e055146100a3578063f75263cf146100d3575b600080fd5b61006b60048036036100669190810190610d84565b6100f1565b005b61008760048036036100829190810190610eca565b610256565b60405161009a9796959493929190611158565b60405180910390f35b6100bd60048036036100b89190810190610d43565b6106f0565b6040516100ca9190611136565b60405180910390f35b6100db610bdb565b6040516100e891906111f8565b60405180910390f35b600160008154809291906001019190505550600087604051610113919061111f565b90815260200160405180910390206040518060e001604052808981526020018881526020018781526020018681526020018581526020018481526020018381525090806001815401808255809150509060018203906000526020600020906007020160009091929091909150600082015181600001908051906020019061019b929190610be1565b5060208201518160010190805190602001906101b8929190610be1565b5060408201518160020190805190602001906101d5929190610be1565b5060608201518160030190805190602001906101f2929190610be1565b50608082015181600401908051906020019061020f929190610be1565b5060a082015181600501908051906020019061022c929190610be1565b5060c0820151816006019080519060200190610249929190610be1565b5050505050505050505050565b600082805160208101820180518482526020830160208501208183528095505050505050818154811061028557fe5b906000526020600020906007020160009150915050806000018054600181600116156101000203166002900480601f0160208091040260200160405190810160405280929190818152602001828054600181600116156101000203166002900480156103325780601f1061030757610100808354040283529160200191610332565b820191906000526020600020905b81548152906001019060200180831161031557829003601f168201915b505050505090806001018054600181600116156101000203166002900480601f0160208091040260200160405190810160405280929190818152602001828054600181600116156101000203166002900480156103d05780601f106103a5576101008083540402835291602001916103d0565b820191906000526020600020905b8154815290600101906020018083116103b357829003601f168201915b505050505090806002018054600181600116156101000203166002900480601f01602080910402602001604051908101604052809291908181526020018280546001816001161561010002031660029004801561046e5780601f106104435761010080835404028352916020019161046e565b820191906000526020600020905b81548152906001019060200180831161045157829003601f168201915b505050505090806003018054600181600116156101000203166002900480601f01602080910402602001604051908101604052809291908181526020018280546001816001161561010002031660029004801561050c5780601f106104e15761010080835404028352916020019161050c565b820191906000526020600020905b8154815290600101906020018083116104ef57829003601f168201915b505050505090806004018054600181600116156101000203166002900480601f0160208091040260200160405190810160405280929190818152602001828054600181600116156101000203166002900480156105aa5780601f1061057f576101008083540402835291602001916105aa565b820191906000526020600020905b81548152906001019060200180831161058d57829003601f168201915b505050505090806005018054600181600116156101000203166002900480601f0160208091040260200160405190810160405280929190818152602001828054600181600116156101000203166002900480156106485780601f1061061d57610100808354040283529160200191610648565b820191906000526020600020905b81548152906001019060200180831161062b57829003601f168201915b505050505090806006018054600181600116156101000203166002900480601f0160208091040260200160405190810160405280929190818152602001828054600181600116156101000203166002900480156106e65780601f106106bb576101008083540402835291602001916106e6565b820191906000526020600020905b8154815290600101906020018083116106c957829003601f168201915b5050505050905087565b6060600082604051610702919061111f565b9081526020016040518091039020805480602002602001604051908101604052809291908181526020016000905b82821015610bd057838290600052602060002090600702016040518060e0016040529081600082018054600181600116156101000203166002900480601f0160208091040260200160405190810160405280929190818152602001828054600181600116156101000203166002900480156107ec5780601f106107c1576101008083540402835291602001916107ec565b820191906000526020600020905b8154815290600101906020018083116107cf57829003601f168201915b50505050508152602001600182018054600181600116156101000203166002900480601f01602080910402602001604051908101604052809291908181526020018280546001816001161561010002031660029004801561088e5780601f106108635761010080835404028352916020019161088e565b820191906000526020600020905b81548152906001019060200180831161087157829003601f168201915b50505050508152602001600282018054600181600116156101000203166002900480601f0160208091040260200160405190810160405280929190818152602001828054600181600116156101000203166002900480156109305780601f1061090557610100808354040283529160200191610930565b820191906000526020600020905b81548152906001019060200180831161091357829003601f168201915b50505050508152602001600382018054600181600116156101000203166002900480601f0160208091040260200160405190810160405280929190818152602001828054600181600116156101000203166002900480156109d25780601f106109a7576101008083540402835291602001916109d2565b820191906000526020600020905b8154815290600101906020018083116109b557829003601f168201915b50505050508152602001600482018054600181600116156101000203166002900480601f016020809104026020016040519081016040528092919081815260200182805460018160011615610100020316600290048015610a745780601f10610a4957610100808354040283529160200191610a74565b820191906000526020600020905b815481529060010190602001808311610a5757829003601f168201915b50505050508152602001600582018054600181600116156101000203166002900480601f016020809104026020016040519081016040528092919081815260200182805460018160011615610100020316600290048015610b165780601f10610aeb57610100808354040283529160200191610b16565b820191906000526020600020905b815481529060010190602001808311610af957829003601f168201915b50505050508152602001600682018054600181600116156101000203166002900480601f016020809104026020016040519081016040528092919081815260200182805460018160011615610100020316600290048015610bb85780601f10610b8d57610100808354040283529160200191610bb8565b820191906000526020600020905b815481529060010190602001808311610b9b57829003601f168201915b50505050508152505081526020019060010190610730565b505050509050919050565b60015481565b828054600181600116156101000203166002900490600052602060002090601f016020900481019282601f10610c2257805160ff1916838001178555610c50565b82800160010185558215610c50579182015b82811115610c4f578251825591602001919060010190610c34565b5b509050610c5d9190610c61565b5090565b610c8391905b80821115610c7f576000816000905550600101610c67565b5090565b90565b600082601f830112610c9757600080fd5b8135610caa610ca582611240565b611213565b91508082526020830160208301858383011115610cc657600080fd5b610cd183828461131e565b50505092915050565b600082601f830112610ceb57600080fd5b8135610cfe610cf98261126c565b611213565b91508082526020830160208301858383011115610d1a57600080fd5b610d2583828461131e565b50505092915050565b600081359050610d3d81611371565b92915050565b600060208284031215610d5557600080fd5b600082013567ffffffffffffffff811115610d6f57600080fd5b610d7b84828501610cda565b91505092915050565b600080600080600080600060e0888a031215610d9f57600080fd5b600088013567ffffffffffffffff811115610db957600080fd5b610dc58a828b01610cda565b975050602088013567ffffffffffffffff811115610de257600080fd5b610dee8a828b01610cda565b965050604088013567ffffffffffffffff811115610e0b57600080fd5b610e178a828b01610cda565b955050606088013567ffffffffffffffff811115610e3457600080fd5b610e408a828b01610cda565b945050608088013567ffffffffffffffff811115610e5d57600080fd5b610e698a828b01610cda565b93505060a088013567ffffffffffffffff811115610e8657600080fd5b610e928a828b01610cda565b92505060c088013567ffffffffffffffff811115610eaf57600080fd5b610ebb8a828b01610cda565b91505092959891949750929550565b60008060408385031215610edd57600080fd5b600083013567ffffffffffffffff811115610ef757600080fd5b610f0385828601610c86565b9250506020610f1485828601610d2e565b9150509250929050565b6000610f2a838361104a565b905092915050565b6000610f3d826112a8565b610f4781856112d6565b935083602082028501610f5985611298565b8060005b85811015610f955784840389528151610f768582610f1e565b9450610f81836112c9565b925060208a01995050600181019050610f5d565b50829750879550505050505092915050565b6000610fb2826112be565b610fbc8185611309565b9350610fcc81856020860161132d565b80840191505092915050565b6000610fe3826112b3565b610fed81856112e7565b9350610ffd81856020860161132d565b61100681611360565b840191505092915050565b600061101c826112b3565b61102681856112f8565b935061103681856020860161132d565b61103f81611360565b840191505092915050565b600060e08301600083015184820360008601526110678282610fd8565b915050602083015184820360208601526110818282610fd8565b9150506040830151848203604086015261109b8282610fd8565b915050606083015184820360608601526110b58282610fd8565b915050608083015184820360808601526110cf8282610fd8565b91505060a083015184820360a08601526110e98282610fd8565b91505060c083015184820360c08601526111038282610fd8565b9150508091505092915050565b61111981611314565b82525050565b600061112b8284610fa7565b915081905092915050565b600060208201905081810360008301526111508184610f32565b905092915050565b600060e0820190508181036000830152611172818a611011565b905081810360208301526111868189611011565b9050818103604083015261119a8188611011565b905081810360608301526111ae8187611011565b905081810360808301526111c28186611011565b905081810360a08301526111d68185611011565b905081810360c08301526111ea8184611011565b905098975050505050505050565b600060208201905061120d6000830184611110565b92915050565b6000604051905081810181811067ffffffffffffffff8211171561123657600080fd5b8060405250919050565b600067ffffffffffffffff82111561125757600080fd5b601f19601f8301169050602081019050919050565b600067ffffffffffffffff82111561128357600080fd5b601f19601f8301169050602081019050919050565b6000819050602082019050919050565b600081519050919050565b600081519050919050565b600081519050919050565b6000602082019050919050565b600082825260208201905092915050565b600082825260208201905092915050565b600082825260208201905092915050565b600081905092915050565b6000819050919050565b82818337600083830152505050565b60005b8381101561134b578082015181840152602081019050611330565b8381111561135a576000848401525b50505050565b6000601f19601f8301169050919050565b61137a81611314565b811461138557600080fd5b5056fea365627a7a72315820d83bad95781dab7d06f7e0271bfef5bf17326256091edde37b4fd487e3ee350c6c6578706572696d656e74616cf564736f6c63430005100040",
  "source": "pragma solidity >=0.5.0;\npragma experimental ABIEncoderV2;\n\ncontract FileActions {\n    mapping(string => FileAction[]) public fileMappings; // state variable\n    uint256 public fileMappingCount;\n\n    struct FileAction {\n        // uint id;\n        string fileId; // File Id should match Id in Konsensus Backend\n        string fileName;\n        string date;\n        string userId; // User attributes\n        string userName;\n        string action;\n        string role;\n    }\n\n    constructor() public {}\n\n    function getAllFileActionsForFile(string memory _fileId)\n        public\n        view\n        returns (FileAction[] memory)\n    {\n        return fileMappings[_fileId];\n    }\n\n    // Adds a new file action with fileId <id> and\n    function createFileAction(\n        string memory _fileId,\n        string memory _fileName,\n        string memory _date,\n        string memory _userId,\n        string memory _userName,\n        string memory _action,\n        string memory _role\n    ) public {\n        fileMappingCount++;\n        fileMappings[_fileId].push(\n            FileAction(\n                _fileId,\n                _fileName,\n                _date,\n                _userId,\n                _userName,\n                _action,\n                _role\n            )\n        );\n    }\n}\n",
  "sourcePath": "/Users/windsorhuang/konsensus-app-frontend/contracts/FileActions.sol",
  "compiler": {
    "name": "solc",
    "version": "0.5.16+commit.9c3226ce.Emscripten.clang"
  },
  "schemaVersion": "3.4.6",
  "updatedAt": "2022-04-14T03:45:03.440Z",
  "devdoc": {
    "methods": {}
  },
  "userdoc": {
    "methods": {}
  }
}