{
  "contractName": "FileActions",
  "abi": [
    {
      "inputs": [],
      "payable": false,
      "stateMutability": "nonpayable",
      "type": "constructor"
    },
    {
      "constant": true,
      "inputs": [],
      "name": "fileMappingCount",
      "outputs": [
        {
          "internalType": "uint256",
          "name": "",
          "type": "uint256"
        }
      ],
      "payable": false,
      "stateMutability": "view",
      "type": "function"
    },
    {
      "constant": true,
      "inputs": [
        {
          "internalType": "uint256",
          "name": "",
          "type": "uint256"
        },
        {
          "internalType": "uint256",
          "name": "",
          "type": "uint256"
        }
      ],
      "name": "fileMappings",
      "outputs": [
        {
          "internalType": "uint256",
          "name": "fileId",
          "type": "uint256"
        },
        {
          "internalType": "string",
          "name": "fileName",
          "type": "string"
        },
        {
          "internalType": "string",
          "name": "date",
          "type": "string"
        },
        {
          "internalType": "uint256",
          "name": "userId",
          "type": "uint256"
        },
        {
          "internalType": "string",
          "name": "action",
          "type": "string"
        },
        {
          "internalType": "string",
          "name": "role",
          "type": "string"
        }
      ],
      "payable": false,
      "stateMutability": "view",
      "type": "function"
    },
    {
      "constant": true,
      "inputs": [
        {
          "internalType": "uint256",
          "name": "_fileId",
          "type": "uint256"
        }
      ],
      "name": "getAllFileActionsForFile",
      "outputs": [
        {
          "components": [
            {
              "internalType": "uint256",
              "name": "fileId",
              "type": "uint256"
            },
            {
              "internalType": "string",
              "name": "fileName",
              "type": "string"
            },
            {
              "internalType": "string",
              "name": "date",
              "type": "string"
            },
            {
              "internalType": "uint256",
              "name": "userId",
              "type": "uint256"
            },
            {
              "internalType": "string",
              "name": "action",
              "type": "string"
            },
            {
              "internalType": "string",
              "name": "role",
              "type": "string"
            }
          ],
          "internalType": "struct FileActions.FileAction[]",
          "name": "",
          "type": "tuple[]"
        }
      ],
      "payable": false,
      "stateMutability": "view",
      "type": "function"
    },
    {
      "constant": false,
      "inputs": [
        {
          "internalType": "uint256",
          "name": "_fileId",
          "type": "uint256"
        },
        {
          "internalType": "string",
          "name": "_fileName",
          "type": "string"
        },
        {
          "internalType": "string",
          "name": "_date",
          "type": "string"
        },
        {
          "internalType": "uint256",
          "name": "_userId",
          "type": "uint256"
        },
        {
          "internalType": "string",
          "name": "_action",
          "type": "string"
        },
        {
          "internalType": "string",
          "name": "_role",
          "type": "string"
        }
      ],
      "name": "createFileAction",
      "outputs": [],
      "payable": false,
      "stateMutability": "nonpayable",
      "type": "function"
    }
  ],
  "bytecode": "0x608060405234801561001057600080fd5b50610e0b806100206000396000f3fe608060405234801561001057600080fd5b506004361061004c5760003560e01c80634affb0f714610051578063d48c729a14610086578063e77dfe61146100a2578063f75263cf146100d2575b600080fd5b61006b600480360361006691908101906109e8565b6100f0565b60405161007d96959493929190610c18565b60405180910390f35b6100a0600480360361009b91908101906108ff565b6103a6565b005b6100bc60048036036100b791908101906108d6565b6104b5565b6040516100c99190610bdb565b60405180910390f35b6100da6107c2565b6040516100e79190610bfd565b60405180910390f35b6000602052816000526040600020818154811061010957fe5b906000526020600020906006020160009150915050806000015490806001018054600181600116156101000203166002900480601f0160208091040260200160405190810160405280929190818152602001828054600181600116156101000203166002900480156101bc5780601f10610191576101008083540402835291602001916101bc565b820191906000526020600020905b81548152906001019060200180831161019f57829003601f168201915b505050505090806002018054600181600116156101000203166002900480601f01602080910402602001604051908101604052809291908181526020018280546001816001161561010002031660029004801561025a5780601f1061022f5761010080835404028352916020019161025a565b820191906000526020600020905b81548152906001019060200180831161023d57829003601f168201915b505050505090806003015490806004018054600181600116156101000203166002900480601f0160208091040260200160405190810160405280929190818152602001828054600181600116156101000203166002900480156102fe5780601f106102d3576101008083540402835291602001916102fe565b820191906000526020600020905b8154815290600101906020018083116102e157829003601f168201915b505050505090806005018054600181600116156101000203166002900480601f01602080910402602001604051908101604052809291908181526020018280546001816001161561010002031660029004801561039c5780601f106103715761010080835404028352916020019161039c565b820191906000526020600020905b81548152906001019060200180831161037f57829003601f168201915b5050505050905086565b6001600081548092919060010191905055506000808781526020019081526020016000206040518060c0016040528088815260200187815260200186815260200185815260200184815260200183815250908060018154018082558091505090600182039060005260206000209060060201600090919290919091506000820151816000015560208201518160010190805190602001906104489291906107c8565b5060408201518160020190805190602001906104659291906107c8565b5060608201518160030155608082015181600401908051906020019061048c9291906107c8565b5060a08201518160050190805190602001906104a99291906107c8565b50505050505050505050565b6060600080838152602001908152602001600020805480602002602001604051908101604052809291908181526020016000905b828210156107b757838290600052602060002090600602016040518060c001604052908160008201548152602001600182018054600181600116156101000203166002900480601f0160208091040260200160405190810160405280929190818152602001828054600181600116156101000203166002900480156105af5780601f10610584576101008083540402835291602001916105af565b820191906000526020600020905b81548152906001019060200180831161059257829003601f168201915b50505050508152602001600282018054600181600116156101000203166002900480601f0160208091040260200160405190810160405280929190818152602001828054600181600116156101000203166002900480156106515780601f1061062657610100808354040283529160200191610651565b820191906000526020600020905b81548152906001019060200180831161063457829003601f168201915b5050505050815260200160038201548152602001600482018054600181600116156101000203166002900480601f0160208091040260200160405190810160405280929190818152602001828054600181600116156101000203166002900480156106fd5780601f106106d2576101008083540402835291602001916106fd565b820191906000526020600020905b8154815290600101906020018083116106e057829003601f168201915b50505050508152602001600582018054600181600116156101000203166002900480601f01602080910402602001604051908101604052809291908181526020018280546001816001161561010002031660029004801561079f5780601f106107745761010080835404028352916020019161079f565b820191906000526020600020905b81548152906001019060200180831161078257829003601f168201915b505050505081525050815260200190600101906104e9565b505050509050919050565b60015481565b828054600181600116156101000203166002900490600052602060002090601f016020900481019282601f1061080957805160ff1916838001178555610837565b82800160010185558215610837579182015b8281111561083657825182559160200191906001019061081b565b5b5090506108449190610848565b5090565b61086a91905b8082111561086657600081600090555060010161084e565b5090565b90565b600082601f83011261087e57600080fd5b813561089161088c82610cc2565b610c95565b915080825260208301602083018583830111156108ad57600080fd5b6108b8838284610d5e565b50505092915050565b6000813590506108d081610db1565b92915050565b6000602082840312156108e857600080fd5b60006108f6848285016108c1565b91505092915050565b60008060008060008060c0878903121561091857600080fd5b600061092689828a016108c1565b965050602087013567ffffffffffffffff81111561094357600080fd5b61094f89828a0161086d565b955050604087013567ffffffffffffffff81111561096c57600080fd5b61097889828a0161086d565b945050606061098989828a016108c1565b935050608087013567ffffffffffffffff8111156109a657600080fd5b6109b289828a0161086d565b92505060a087013567ffffffffffffffff8111156109cf57600080fd5b6109db89828a0161086d565b9150509295509295509295565b600080604083850312156109fb57600080fd5b6000610a09858286016108c1565b9250506020610a1a858286016108c1565b9150509250929050565b6000610a308383610b1f565b905092915050565b6000610a4382610cfe565b610a4d8185610d21565b935083602082028501610a5f85610cee565b8060005b85811015610a9b5784840389528151610a7c8582610a24565b9450610a8783610d14565b925060208a01995050600181019050610a63565b50829750879550505050505092915050565b6000610ab882610d09565b610ac28185610d32565b9350610ad2818560208601610d6d565b610adb81610da0565b840191505092915050565b6000610af182610d09565b610afb8185610d43565b9350610b0b818560208601610d6d565b610b1481610da0565b840191505092915050565b600060c083016000830151610b376000860182610bbd565b5060208301518482036020860152610b4f8282610aad565b91505060408301518482036040860152610b698282610aad565b9150506060830151610b7e6060860182610bbd565b5060808301518482036080860152610b968282610aad565b91505060a083015184820360a0860152610bb08282610aad565b9150508091505092915050565b610bc681610d54565b82525050565b610bd581610d54565b82525050565b60006020820190508181036000830152610bf58184610a38565b905092915050565b6000602082019050610c126000830184610bcc565b92915050565b600060c082019050610c2d6000830189610bcc565b8181036020830152610c3f8188610ae6565b90508181036040830152610c538187610ae6565b9050610c626060830186610bcc565b8181036080830152610c748185610ae6565b905081810360a0830152610c888184610ae6565b9050979650505050505050565b6000604051905081810181811067ffffffffffffffff82111715610cb857600080fd5b8060405250919050565b600067ffffffffffffffff821115610cd957600080fd5b601f19601f8301169050602081019050919050565b6000819050602082019050919050565b600081519050919050565b600081519050919050565b6000602082019050919050565b600082825260208201905092915050565b600082825260208201905092915050565b600082825260208201905092915050565b6000819050919050565b82818337600083830152505050565b60005b83811015610d8b578082015181840152602081019050610d70565b83811115610d9a576000848401525b50505050565b6000601f19601f8301169050919050565b610dba81610d54565b8114610dc557600080fd5b5056fea365627a7a72315820670a6f7759999353cb64791476db5d40648e9628a7404858dfb8a163f6c9ebc06c6578706572696d656e74616cf564736f6c63430005100040",
  "source": "pragma solidity >=0.5.0;\npragma experimental ABIEncoderV2;\n\ncontract FileActions {\n    mapping(uint256 => FileAction[]) public fileMappings; // state variable\n    uint256 public fileMappingCount;\n\n    struct FileAction {\n        // uint id;\n        uint256 fileId; // File Id should match Id in Konsensus Backend\n        string fileName;\n        string date;\n        uint256 userId; // User attributes\n        string action;\n        string role;\n    }\n\n    constructor() public {}\n\n    function getAllFileActionsForFile(uint256 _fileId)\n        public\n        view\n        returns (FileAction[] memory)\n    {\n        return fileMappings[_fileId];\n    }\n\n    // Adds a new file action with fileId <id> and\n    function createFileAction(\n        uint256 _fileId,\n        string memory _fileName,\n        string memory _date,\n        uint256 _userId,\n        string memory _action,\n        string memory _role\n    ) public {\n        fileMappingCount++;\n        fileMappings[_fileId].push(\n            FileAction(_fileId, _fileName, _date, _userId, _action, _role)\n        );\n    }\n}\n",
  "sourcePath": "/Users/windsorhuang/konsensus-app-frontend/contracts/FileActions.sol",
  "compiler": {
    "name": "solc",
    "version": "0.5.16+commit.9c3226ce.Emscripten.clang"
  },
  "schemaVersion": "3.4.6",
  "updatedAt": "2022-04-07T23:13:53.452Z",
  "networkType": "ethereum",
  "devdoc": {
    "methods": {}
  },
  "userdoc": {
    "methods": {}
  }
}